{
  "contractName": "NftMarket",
  "abi": [
    {
      "inputs": [],
      "stateMutability": "nonpayable",
      "type": "constructor"
    },
    {
      "anonymous": false,
      "inputs": [
        {
          "indexed": true,
          "internalType": "address",
          "name": "owner",
          "type": "address"
        },
        {
          "indexed": true,
          "internalType": "address",
          "name": "approved",
          "type": "address"
        },
        {
          "indexed": true,
          "internalType": "uint256",
          "name": "tokenId",
          "type": "uint256"
        }
      ],
      "name": "Approval",
      "type": "event"
    },
    {
      "anonymous": false,
      "inputs": [
        {
          "indexed": true,
          "internalType": "address",
          "name": "owner",
          "type": "address"
        },
        {
          "indexed": true,
          "internalType": "address",
          "name": "operator",
          "type": "address"
        },
        {
          "indexed": false,
          "internalType": "bool",
          "name": "approved",
          "type": "bool"
        }
      ],
      "name": "ApprovalForAll",
      "type": "event"
    },
    {
      "anonymous": false,
      "inputs": [
        {
          "indexed": false,
          "internalType": "uint256",
          "name": "_fromTokenId",
          "type": "uint256"
        },
        {
          "indexed": false,
          "internalType": "uint256",
          "name": "_toTokenId",
          "type": "uint256"
        }
      ],
      "name": "BatchMetadataUpdate",
      "type": "event"
    },
    {
      "anonymous": false,
      "inputs": [
        {
          "indexed": false,
          "internalType": "uint256",
          "name": "_tokenId",
          "type": "uint256"
        }
      ],
      "name": "MetadataUpdate",
      "type": "event"
    },
    {
      "anonymous": false,
      "inputs": [
        {
          "indexed": false,
          "internalType": "uint256",
          "name": "tokenId",
          "type": "uint256"
        },
        {
          "indexed": false,
          "internalType": "uint256",
          "name": "price",
          "type": "uint256"
        },
        {
          "indexed": false,
          "internalType": "address",
          "name": "creator",
          "type": "address"
        },
        {
          "indexed": false,
          "internalType": "bool",
          "name": "isListed",
          "type": "bool"
        }
      ],
      "name": "NftItemCreated",
      "type": "event"
    },
    {
      "anonymous": false,
      "inputs": [
        {
          "indexed": true,
          "internalType": "address",
          "name": "previousOwner",
          "type": "address"
        },
        {
          "indexed": true,
          "internalType": "address",
          "name": "newOwner",
          "type": "address"
        }
      ],
      "name": "OwnershipTransferred",
      "type": "event"
    },
    {
      "anonymous": false,
      "inputs": [
        {
          "indexed": true,
          "internalType": "address",
          "name": "from",
          "type": "address"
        },
        {
          "indexed": true,
          "internalType": "address",
          "name": "to",
          "type": "address"
        },
        {
          "indexed": true,
          "internalType": "uint256",
          "name": "tokenId",
          "type": "uint256"
        }
      ],
      "name": "Transfer",
      "type": "event"
    },
    {
      "inputs": [
        {
          "internalType": "address",
          "name": "to",
          "type": "address"
        },
        {
          "internalType": "uint256",
          "name": "tokenId",
          "type": "uint256"
        }
      ],
      "name": "approve",
      "outputs": [],
      "stateMutability": "nonpayable",
      "type": "function"
    },
    {
      "inputs": [
        {
          "internalType": "address",
          "name": "owner",
          "type": "address"
        }
      ],
      "name": "balanceOf",
      "outputs": [
        {
          "internalType": "uint256",
          "name": "",
          "type": "uint256"
        }
      ],
      "stateMutability": "view",
      "type": "function",
      "constant": true
    },
    {
      "inputs": [
        {
          "internalType": "uint256",
          "name": "tokenId",
          "type": "uint256"
        }
      ],
      "name": "getApproved",
      "outputs": [
        {
          "internalType": "address",
          "name": "",
          "type": "address"
        }
      ],
      "stateMutability": "view",
      "type": "function",
      "constant": true
    },
    {
      "inputs": [
        {
          "internalType": "address",
          "name": "owner",
          "type": "address"
        },
        {
          "internalType": "address",
          "name": "operator",
          "type": "address"
        }
      ],
      "name": "isApprovedForAll",
      "outputs": [
        {
          "internalType": "bool",
          "name": "",
          "type": "bool"
        }
      ],
      "stateMutability": "view",
      "type": "function",
      "constant": true
    },
    {
      "inputs": [],
      "name": "listingPrice",
      "outputs": [
        {
          "internalType": "uint256",
          "name": "",
          "type": "uint256"
        }
      ],
      "stateMutability": "view",
      "type": "function",
      "constant": true
    },
    {
      "inputs": [],
      "name": "name",
      "outputs": [
        {
          "internalType": "string",
          "name": "",
          "type": "string"
        }
      ],
      "stateMutability": "view",
      "type": "function",
      "constant": true
    },
    {
      "inputs": [],
      "name": "owner",
      "outputs": [
        {
          "internalType": "address",
          "name": "",
          "type": "address"
        }
      ],
      "stateMutability": "view",
      "type": "function",
      "constant": true
    },
    {
      "inputs": [
        {
          "internalType": "uint256",
          "name": "tokenId",
          "type": "uint256"
        }
      ],
      "name": "ownerOf",
      "outputs": [
        {
          "internalType": "address",
          "name": "",
          "type": "address"
        }
      ],
      "stateMutability": "view",
      "type": "function",
      "constant": true
    },
    {
      "inputs": [],
      "name": "renounceOwnership",
      "outputs": [],
      "stateMutability": "nonpayable",
      "type": "function"
    },
    {
      "inputs": [
        {
          "internalType": "address",
          "name": "from",
          "type": "address"
        },
        {
          "internalType": "address",
          "name": "to",
          "type": "address"
        },
        {
          "internalType": "uint256",
          "name": "tokenId",
          "type": "uint256"
        }
      ],
      "name": "safeTransferFrom",
      "outputs": [],
      "stateMutability": "nonpayable",
      "type": "function"
    },
    {
      "inputs": [
        {
          "internalType": "address",
          "name": "from",
          "type": "address"
        },
        {
          "internalType": "address",
          "name": "to",
          "type": "address"
        },
        {
          "internalType": "uint256",
          "name": "tokenId",
          "type": "uint256"
        },
        {
          "internalType": "bytes",
          "name": "data",
          "type": "bytes"
        }
      ],
      "name": "safeTransferFrom",
      "outputs": [],
      "stateMutability": "nonpayable",
      "type": "function"
    },
    {
      "inputs": [
        {
          "internalType": "address",
          "name": "operator",
          "type": "address"
        },
        {
          "internalType": "bool",
          "name": "approved",
          "type": "bool"
        }
      ],
      "name": "setApprovalForAll",
      "outputs": [],
      "stateMutability": "nonpayable",
      "type": "function"
    },
    {
      "inputs": [
        {
          "internalType": "bytes4",
          "name": "interfaceId",
          "type": "bytes4"
        }
      ],
      "name": "supportsInterface",
      "outputs": [
        {
          "internalType": "bool",
          "name": "",
          "type": "bool"
        }
      ],
      "stateMutability": "view",
      "type": "function",
      "constant": true
    },
    {
      "inputs": [],
      "name": "symbol",
      "outputs": [
        {
          "internalType": "string",
          "name": "",
          "type": "string"
        }
      ],
      "stateMutability": "view",
      "type": "function",
      "constant": true
    },
    {
      "inputs": [
        {
          "internalType": "uint256",
          "name": "tokenId",
          "type": "uint256"
        }
      ],
      "name": "tokenURI",
      "outputs": [
        {
          "internalType": "string",
          "name": "",
          "type": "string"
        }
      ],
      "stateMutability": "view",
      "type": "function",
      "constant": true
    },
    {
      "inputs": [
        {
          "internalType": "address",
          "name": "from",
          "type": "address"
        },
        {
          "internalType": "address",
          "name": "to",
          "type": "address"
        },
        {
          "internalType": "uint256",
          "name": "tokenId",
          "type": "uint256"
        }
      ],
      "name": "transferFrom",
      "outputs": [],
      "stateMutability": "nonpayable",
      "type": "function"
    },
    {
      "inputs": [
        {
          "internalType": "address",
          "name": "newOwner",
          "type": "address"
        }
      ],
      "name": "transferOwnership",
      "outputs": [],
      "stateMutability": "nonpayable",
      "type": "function"
    },
    {
      "inputs": [
        {
          "internalType": "uint256",
          "name": "newPrice",
          "type": "uint256"
        }
      ],
      "name": "setListingPrice",
      "outputs": [],
      "stateMutability": "nonpayable",
      "type": "function"
    },
    {
      "inputs": [
        {
          "internalType": "uint256",
          "name": "tokenId",
          "type": "uint256"
        }
      ],
      "name": "getNftItem",
      "outputs": [
        {
          "components": [
            {
              "internalType": "uint256",
              "name": "tokenId",
              "type": "uint256"
            },
            {
              "internalType": "uint256",
              "name": "price",
              "type": "uint256"
            },
            {
              "internalType": "address",
              "name": "creator",
              "type": "address"
            },
            {
              "internalType": "bool",
              "name": "isListed",
              "type": "bool"
            }
          ],
          "internalType": "struct NftMarket.NftItem",
          "name": "",
          "type": "tuple"
        }
      ],
      "stateMutability": "view",
      "type": "function",
      "constant": true
    },
    {
      "inputs": [],
      "name": "listedItemsCount",
      "outputs": [
        {
          "internalType": "uint256",
          "name": "",
          "type": "uint256"
        }
      ],
      "stateMutability": "view",
      "type": "function",
      "constant": true
    },
    {
      "inputs": [
        {
          "internalType": "string",
          "name": "tokenURI",
          "type": "string"
        }
      ],
      "name": "tokenURIExists",
      "outputs": [
        {
          "internalType": "bool",
          "name": "",
          "type": "bool"
        }
      ],
      "stateMutability": "view",
      "type": "function",
      "constant": true
    },
    {
      "inputs": [],
      "name": "totalSupply",
      "outputs": [
        {
          "internalType": "uint256",
          "name": "",
          "type": "uint256"
        }
      ],
      "stateMutability": "view",
      "type": "function",
      "constant": true
    },
    {
      "inputs": [
        {
          "internalType": "uint256",
          "name": "index",
          "type": "uint256"
        }
      ],
      "name": "tokenByIndex",
      "outputs": [
        {
          "internalType": "uint256",
          "name": "",
          "type": "uint256"
        }
      ],
      "stateMutability": "view",
      "type": "function",
      "constant": true
    },
    {
      "inputs": [
        {
          "internalType": "address",
          "name": "owner",
          "type": "address"
        },
        {
          "internalType": "uint256",
          "name": "index",
          "type": "uint256"
        }
      ],
      "name": "tokenOfOwnedByIndex",
      "outputs": [
        {
          "internalType": "uint256",
          "name": "",
          "type": "uint256"
        }
      ],
      "stateMutability": "view",
      "type": "function",
      "constant": true
    },
    {
      "inputs": [],
      "name": "getAllNftsOnSale",
      "outputs": [
        {
          "components": [
            {
              "internalType": "uint256",
              "name": "tokenId",
              "type": "uint256"
            },
            {
              "internalType": "uint256",
              "name": "price",
              "type": "uint256"
            },
            {
              "internalType": "address",
              "name": "creator",
              "type": "address"
            },
            {
              "internalType": "bool",
              "name": "isListed",
              "type": "bool"
            }
          ],
          "internalType": "struct NftMarket.NftItem[]",
          "name": "",
          "type": "tuple[]"
        }
      ],
      "stateMutability": "view",
      "type": "function",
      "constant": true
    },
    {
      "inputs": [],
      "name": "getOwnedNfts",
      "outputs": [
        {
          "components": [
            {
              "internalType": "uint256",
              "name": "tokenId",
              "type": "uint256"
            },
            {
              "internalType": "uint256",
              "name": "price",
              "type": "uint256"
            },
            {
              "internalType": "address",
              "name": "creator",
              "type": "address"
            },
            {
              "internalType": "bool",
              "name": "isListed",
              "type": "bool"
            }
          ],
          "internalType": "struct NftMarket.NftItem[]",
          "name": "",
          "type": "tuple[]"
        }
      ],
      "stateMutability": "view",
      "type": "function",
      "constant": true
    },
    {
      "inputs": [
        {
          "internalType": "uint256",
          "name": "tokenId",
          "type": "uint256"
        }
      ],
      "name": "burnToken",
      "outputs": [],
      "stateMutability": "nonpayable",
      "type": "function"
    },
    {
      "inputs": [
        {
          "internalType": "string",
          "name": "tokenURI",
          "type": "string"
        },
        {
          "internalType": "uint256",
          "name": "price",
          "type": "uint256"
        }
      ],
      "name": "mintToken",
      "outputs": [
        {
          "internalType": "uint256",
          "name": "",
          "type": "uint256"
        }
      ],
      "stateMutability": "payable",
      "type": "function",
      "payable": true
    },
    {
      "inputs": [
        {
          "internalType": "uint256",
          "name": "tokenId",
          "type": "uint256"
        }
      ],
      "name": "buyNft",
      "outputs": [],
      "stateMutability": "payable",
      "type": "function",
      "payable": true
    },
    {
      "inputs": [
        {
          "internalType": "uint256",
          "name": "tokenId",
          "type": "uint256"
        },
        {
          "internalType": "uint256",
          "name": "newPrice",
          "type": "uint256"
        }
      ],
      "name": "placeNftOnSale",
      "outputs": [],
      "stateMutability": "payable",
      "type": "function",
      "payable": true
    }
  ],
  "bytecode": "0x60806040526658d15e176280006008553480156200001c57600080fd5b506040518060400160405280600c81526020017f4372656174757265734e465400000000000000000000000000000000000000008152506040518060400160405280600481526020017f434e4654000000000000000000000000000000000000000000000000000000008152508160009080519060200190620000a1929190620001b1565b508060019080519060200190620000ba929190620001b1565b505050620000dd620000d1620000e360201b60201c565b620000eb60201b60201c565b620002c5565b600033905090565b6000600760009054906101000a900473ffffffffffffffffffffffffffffffffffffffff16905081600760006101000a81548173ffffffffffffffffffffffffffffffffffffffff021916908373ffffffffffffffffffffffffffffffffffffffff1602179055508173ffffffffffffffffffffffffffffffffffffffff168173ffffffffffffffffffffffffffffffffffffffff167f8be0079c531659141344cd1fd0a4f28419497f9722a3daafe3b4186f6b6457e060405160405180910390a35050565b828054620001bf9062000290565b90600052602060002090601f016020900481019282620001e357600085556200022f565b82601f10620001fe57805160ff19168380011785556200022f565b828001600101855582156200022f579182015b828111156200022e57825182559160200191906001019062000211565b5b5090506200023e919062000242565b5090565b5b808211156200025d57600081600090555060010162000243565b5090565b7f4e487b7100000000000000000000000000000000000000000000000000000000600052602260045260246000fd5b60006002820490506001821680620002a957607f821691505b602082108103620002bf57620002be62000261565b5b50919050565b614a0080620002d56000396000f3fe6080604052600436106101cd5760003560e01c806370cbcb43116100f7578063b88d4fde11610095578063ccb4918d11610064578063ccb4918d14610685578063e985e9c5146106b0578063f2fde38b146106ed578063fc39950914610716576101cd565b8063b88d4fde146105c4578063c046372c146105ed578063c78f19f91461061d578063c87b56dd14610648576101cd565b80637c726b69116100d15780637c726b691461051c5780638da5cb5b1461054557806395d89b4114610570578063a22cb4651461059b576101cd565b806370cbcb43146104b1578063715018a6146104dc5780637b47ec1a146104f3576101cd565b8063243adbdd1161016f5780634f6ccce71161013e5780634f6ccce7146103bd5780636352211e146103fa5780636f1a0af51461043757806370a0823114610474576101cd565b8063243adbdd1461031057806336b536be1461032c57806342842e0e1461035757806343d32ae714610380576101cd565b8063095ea7b3116101ab578063095ea7b31461027757806318160ddd146102a057806321f422e5146102cb57806323b872dd146102e7576101cd565b806301ffc9a7146101d257806306fdde031461020f578063081812fc1461023a575b600080fd5b3480156101de57600080fd5b506101f960048036038101906101f4919061326d565b610753565b60405161020691906132b5565b60405180910390f35b34801561021b57600080fd5b506102246107b4565b6040516102319190613369565b60405180910390f35b34801561024657600080fd5b50610261600480360381019061025c91906133c1565b610846565b60405161026e919061342f565b60405180910390f35b34801561028357600080fd5b5061029e60048036038101906102999190613476565b61088c565b005b3480156102ac57600080fd5b506102b56109a3565b6040516102c291906134c5565b60405180910390f35b6102e560048036038101906102e091906134e0565b6109b0565b005b3480156102f357600080fd5b5061030e60048036038101906103099190613520565b610b2c565b005b61032a600480360381019061032591906133c1565b610b8c565b005b34801561033857600080fd5b50610341610cf4565b60405161034e91906136a4565b60405180910390f35b34801561036357600080fd5b5061037e60048036038101906103799190613520565b610e8e565b005b34801561038c57600080fd5b506103a760048036038101906103a291906137fb565b610eae565b6040516103b491906132b5565b60405180910390f35b3480156103c957600080fd5b506103e460048036038101906103df91906133c1565b610eea565b6040516103f191906134c5565b60405180910390f35b34801561040657600080fd5b50610421600480360381019061041c91906133c1565b610f5b565b60405161042e919061342f565b60405180910390f35b34801561044357600080fd5b5061045e600480360381019061045991906133c1565b610fe1565b60405161046b9190613899565b60405180910390f35b34801561048057600080fd5b5061049b600480360381019061049691906138b4565b611093565b6040516104a891906134c5565b60405180910390f35b3480156104bd57600080fd5b506104c661114a565b6040516104d391906136a4565b60405180910390f35b3480156104e857600080fd5b506104f16112ae565b005b3480156104ff57600080fd5b5061051a600480360381019061051591906133c1565b6112c2565b005b34801561052857600080fd5b50610543600480360381019061053e91906133c1565b6112ce565b005b34801561055157600080fd5b5061055a611323565b604051610567919061342f565b60405180910390f35b34801561057c57600080fd5b5061058561134d565b6040516105929190613369565b60405180910390f35b3480156105a757600080fd5b506105c260048036038101906105bd919061390d565b6113df565b005b3480156105d057600080fd5b506105eb60048036038101906105e691906139ee565b6113f5565b005b61060760048036038101906106029190613a71565b611457565b60405161061491906134c5565b60405180910390f35b34801561062957600080fd5b50610632611567565b60405161063f91906134c5565b60405180910390f35b34801561065457600080fd5b5061066f600480360381019061066a91906133c1565b61156d565b60405161067c9190613369565b60405180910390f35b34801561069157600080fd5b5061069a61167f565b6040516106a791906134c5565b60405180910390f35b3480156106bc57600080fd5b506106d760048036038101906106d29190613acd565b611690565b6040516106e491906132b5565b60405180910390f35b3480156106f957600080fd5b50610714600480360381019061070f91906138b4565b611724565b005b34801561072257600080fd5b5061073d60048036038101906107389190613476565b6117a7565b60405161074a91906134c5565b60405180910390f35b6000634906490660e01b7bffffffffffffffffffffffffffffffffffffffffffffffffffffffff1916827bffffffffffffffffffffffffffffffffffffffffffffffffffffffff191614806107ad57506107ac8261184c565b5b9050919050565b6060600080546107c390613b3c565b80601f01602080910402602001604051908101604052809291908181526020018280546107ef90613b3c565b801561083c5780601f106108115761010080835404028352916020019161083c565b820191906000526020600020905b81548152906001019060200180831161081f57829003601f168201915b5050505050905090565b60006108518261192e565b6004600083815260200190815260200160002060009054906101000a900473ffffffffffffffffffffffffffffffffffffffff169050919050565b600061089782610f5b565b90508073ffffffffffffffffffffffffffffffffffffffff168373ffffffffffffffffffffffffffffffffffffffff1603610907576040517f08c379a00000000000000000000000000000000000000000000000000000000081526004016108fe90613bdf565b60405180910390fd5b8073ffffffffffffffffffffffffffffffffffffffff16610926611979565b73ffffffffffffffffffffffffffffffffffffffff16148061095557506109548161094f611979565b611690565b5b610994576040517f08c379a000000000000000000000000000000000000000000000000000000000815260040161098b90613c71565b60405180910390fd5b61099e8383611981565b505050565b6000600f80549050905090565b3373ffffffffffffffffffffffffffffffffffffffff166109d083610f5b565b73ffffffffffffffffffffffffffffffffffffffff1614610a26576040517f08c379a0000000000000000000000000000000000000000000000000000000008152600401610a1d90613cdd565b60405180910390fd5b60001515600c600084815260200190815260200160002060020160149054906101000a900460ff16151514610a90576040517f08c379a0000000000000000000000000000000000000000000000000000000008152600401610a8790613d49565b60405180910390fd5b6008543414610ad4576040517f08c379a0000000000000000000000000000000000000000000000000000000008152600401610acb90613ddb565b60405180910390fd5b6001600c600084815260200190815260200160002060020160146101000a81548160ff02191690831515021790555080600c600084815260200190815260200160002060010181905550610b286009611a3a565b5050565b610b3d610b37611979565b82611a50565b610b7c576040517f08c379a0000000000000000000000000000000000000000000000000000000008152600401610b7390613e6d565b60405180910390fd5b610b87838383611ae5565b505050565b6000600c60008381526020019081526020016000206001015490506000610bb283610f5b565b90508073ffffffffffffffffffffffffffffffffffffffff163373ffffffffffffffffffffffffffffffffffffffff1603610c22576040517f08c379a0000000000000000000000000000000000000000000000000000000008152600401610c1990613ed9565b60405180910390fd5b813414610c64576040517f08c379a0000000000000000000000000000000000000000000000000000000008152600401610c5b90613f45565b60405180910390fd5b6000600c600085815260200190815260200160002060020160146101000a81548160ff021916908315150217905550610c9d6009611dde565b610ca8813385611ae5565b8073ffffffffffffffffffffffffffffffffffffffff166108fc349081150290604051600060405180830381858888f19350505050158015610cee573d6000803e3d6000fd5b50505050565b60606000610d006109a3565b9050600080610d0f6009611e3a565b67ffffffffffffffff811115610d2857610d276136d0565b5b604051908082528060200260200182016040528015610d6157816020015b610d4e6130de565b815260200190600190039081610d465790505b50905060005b83811015610e84576000610d7a82610eea565b90506000600c60008381526020019081526020016000209050600115158160020160149054906101000a900460ff16151503610e6f578060405180608001604052908160008201548152602001600182015481526020016002820160009054906101000a900473ffffffffffffffffffffffffffffffffffffffff1673ffffffffffffffffffffffffffffffffffffffff1673ffffffffffffffffffffffffffffffffffffffff1681526020016002820160149054906101000a900460ff161515151581525050848681518110610e5457610e53613f65565b5b6020026020010181905250600185610e6c9190613fc3565b94505b50508080610e7c90614019565b915050610d67565b5080935050505090565b610ea9838383604051806020016040528060008152506113f5565b505050565b600060011515600b83604051610ec4919061409d565b908152602001604051809103902060009054906101000a900460ff161515149050919050565b6000610ef46109a3565b8210610f35576040517f08c379a0000000000000000000000000000000000000000000000000000000008152600401610f2c90614100565b60405180910390fd5b600f8281548110610f4957610f48613f65565b5b90600052602060002001549050919050565b600080610f6783611e48565b9050600073ffffffffffffffffffffffffffffffffffffffff168173ffffffffffffffffffffffffffffffffffffffff1603610fd8576040517f08c379a0000000000000000000000000000000000000000000000000000000008152600401610fcf9061416c565b60405180910390fd5b80915050919050565b610fe96130de565b600c600083815260200190815260200160002060405180608001604052908160008201548152602001600182015481526020016002820160009054906101000a900473ffffffffffffffffffffffffffffffffffffffff1673ffffffffffffffffffffffffffffffffffffffff1673ffffffffffffffffffffffffffffffffffffffff1681526020016002820160149054906101000a900460ff1615151515815250509050919050565b60008073ffffffffffffffffffffffffffffffffffffffff168273ffffffffffffffffffffffffffffffffffffffff1603611103576040517f08c379a00000000000000000000000000000000000000000000000000000000081526004016110fa906141fe565b60405180910390fd5b600360008373ffffffffffffffffffffffffffffffffffffffff1673ffffffffffffffffffffffffffffffffffffffff168152602001908152602001600020549050919050565b6060600061115733611093565b905060008167ffffffffffffffff811115611175576111746136d0565b5b6040519080825280602002602001820160405280156111ae57816020015b61119b6130de565b8152602001906001900390816111935790505b50905060005b828110156112a55760006111c833836117a7565b90506000600c600083815260200190815260200160002090508060405180608001604052908160008201548152602001600182015481526020016002820160009054906101000a900473ffffffffffffffffffffffffffffffffffffffff1673ffffffffffffffffffffffffffffffffffffffff1673ffffffffffffffffffffffffffffffffffffffff1681526020016002820160149054906101000a900460ff16151515158152505084848151811061128557611284613f65565b5b60200260200101819052505050808061129d90614019565b9150506111b4565b50809250505090565b6112b6611e85565b6112c06000611f03565b565b6112cb81611fc9565b50565b6112d6611e85565b60008111611319576040517f08c379a00000000000000000000000000000000000000000000000000000000081526004016113109061426a565b60405180910390fd5b8060088190555050565b6000600760009054906101000a900473ffffffffffffffffffffffffffffffffffffffff16905090565b60606001805461135c90613b3c565b80601f016020809104026020016040519081016040528092919081815260200182805461138890613b3c565b80156113d55780601f106113aa576101008083540402835291602001916113d5565b820191906000526020600020905b8154815290600101906020018083116113b857829003601f168201915b5050505050905090565b6113f16113ea611979565b838361201c565b5050565b611406611400611979565b83611a50565b611445576040517f08c379a000000000000000000000000000000000000000000000000000000000815260040161143c90613e6d565b60405180910390fd5b61145184848484612188565b50505050565b600061146283610eae565b156114a2576040517f08c379a0000000000000000000000000000000000000000000000000000000008152600401611499906142d6565b60405180910390fd5b60085434146114e6576040517f08c379a00000000000000000000000000000000000000000000000000000000081526004016114dd90613ddb565b60405180910390fd5b6114f0600a611a3a565b6114fa6009611a3a565b6000611506600a611e3a565b905061151233826121e4565b61151c8185612202565b61152681846122ad565b6001600b85604051611538919061409d565b908152602001604051809103902060006101000a81548160ff0219169083151502179055508091505092915050565b60085481565b60606115788261192e565b600060066000848152602001908152602001600020805461159890613b3c565b80601f01602080910402602001604051908101604052809291908181526020018280546115c490613b3c565b80156116115780601f106115e657610100808354040283529160200191611611565b820191906000526020600020905b8154815290600101906020018083116115f457829003601f168201915b5050505050905060006116226123fd565b9050600081510361163757819250505061167a565b60008251111561166c5780826040516020016116549291906142f6565b6040516020818303038152906040529250505061167a565b61167584612414565b925050505b919050565b600061168b6009611e3a565b905090565b6000600560008473ffffffffffffffffffffffffffffffffffffffff1673ffffffffffffffffffffffffffffffffffffffff16815260200190815260200160002060008373ffffffffffffffffffffffffffffffffffffffff1673ffffffffffffffffffffffffffffffffffffffff16815260200190815260200160002060009054906101000a900460ff16905092915050565b61172c611e85565b600073ffffffffffffffffffffffffffffffffffffffff168173ffffffffffffffffffffffffffffffffffffffff160361179b576040517f08c379a00000000000000000000000000000000000000000000000000000000081526004016117929061438c565b60405180910390fd5b6117a481611f03565b50565b60006117b283611093565b82106117f3576040517f08c379a00000000000000000000000000000000000000000000000000000000081526004016117ea90614100565b60405180910390fd5b600d60008473ffffffffffffffffffffffffffffffffffffffff1673ffffffffffffffffffffffffffffffffffffffff168152602001908152602001600020600083815260200190815260200160002054905092915050565b60007f80ac58cd000000000000000000000000000000000000000000000000000000007bffffffffffffffffffffffffffffffffffffffffffffffffffffffff1916827bffffffffffffffffffffffffffffffffffffffffffffffffffffffff1916148061191757507f5b5e139f000000000000000000000000000000000000000000000000000000007bffffffffffffffffffffffffffffffffffffffffffffffffffffffff1916827bffffffffffffffffffffffffffffffffffffffffffffffffffffffff1916145b8061192757506119268261247c565b5b9050919050565b611937816124e6565b611976576040517f08c379a000000000000000000000000000000000000000000000000000000000815260040161196d9061416c565b60405180910390fd5b50565b600033905090565b816004600083815260200190815260200160002060006101000a81548173ffffffffffffffffffffffffffffffffffffffff021916908373ffffffffffffffffffffffffffffffffffffffff160217905550808273ffffffffffffffffffffffffffffffffffffffff166119f483610f5b565b73ffffffffffffffffffffffffffffffffffffffff167f8c5be1e5ebec7d5bd14f71427d1e84f3dd0314c0f7b2291e5b200ac8c7c3b92560405160405180910390a45050565b6001816000016000828254019250508190555050565b600080611a5c83610f5b565b90508073ffffffffffffffffffffffffffffffffffffffff168473ffffffffffffffffffffffffffffffffffffffff161480611a9e5750611a9d8185611690565b5b80611adc57508373ffffffffffffffffffffffffffffffffffffffff16611ac484610846565b73ffffffffffffffffffffffffffffffffffffffff16145b91505092915050565b8273ffffffffffffffffffffffffffffffffffffffff16611b0582610f5b565b73ffffffffffffffffffffffffffffffffffffffff1614611b5b576040517f08c379a0000000000000000000000000000000000000000000000000000000008152600401611b529061441e565b60405180910390fd5b600073ffffffffffffffffffffffffffffffffffffffff168273ffffffffffffffffffffffffffffffffffffffff1603611bca576040517f08c379a0000000000000000000000000000000000000000000000000000000008152600401611bc1906144b0565b60405180910390fd5b611bd78383836001612527565b8273ffffffffffffffffffffffffffffffffffffffff16611bf782610f5b565b73ffffffffffffffffffffffffffffffffffffffff1614611c4d576040517f08c379a0000000000000000000000000000000000000000000000000000000008152600401611c449061441e565b60405180910390fd5b6004600082815260200190815260200160002060006101000a81549073ffffffffffffffffffffffffffffffffffffffff02191690556001600360008573ffffffffffffffffffffffffffffffffffffffff1673ffffffffffffffffffffffffffffffffffffffff168152602001908152602001600020600082825403925050819055506001600360008473ffffffffffffffffffffffffffffffffffffffff1673ffffffffffffffffffffffffffffffffffffffff16815260200190815260200160002060008282540192505081905550816002600083815260200190815260200160002060006101000a81548173ffffffffffffffffffffffffffffffffffffffff021916908373ffffffffffffffffffffffffffffffffffffffff160217905550808273ffffffffffffffffffffffffffffffffffffffff168473ffffffffffffffffffffffffffffffffffffffff167fddf252ad1be2c89b69c2b068fc378daa952ba7f163c4a11628f55a4df523b3ef60405160405180910390a4611dd9838383600161263b565b505050565b60008160000154905060008111611e2a576040517f08c379a0000000000000000000000000000000000000000000000000000000008152600401611e219061451c565b60405180910390fd5b6001810382600001819055505050565b600081600001549050919050565b60006002600083815260200190815260200160002060009054906101000a900473ffffffffffffffffffffffffffffffffffffffff169050919050565b611e8d611979565b73ffffffffffffffffffffffffffffffffffffffff16611eab611323565b73ffffffffffffffffffffffffffffffffffffffff1614611f01576040517f08c379a0000000000000000000000000000000000000000000000000000000008152600401611ef890614588565b60405180910390fd5b565b6000600760009054906101000a900473ffffffffffffffffffffffffffffffffffffffff16905081600760006101000a81548173ffffffffffffffffffffffffffffffffffffffff021916908373ffffffffffffffffffffffffffffffffffffffff1602179055508173ffffffffffffffffffffffffffffffffffffffff168173ffffffffffffffffffffffffffffffffffffffff167f8be0079c531659141344cd1fd0a4f28419497f9722a3daafe3b4186f6b6457e060405160405180910390a35050565b611fd281612641565b6000600660008381526020019081526020016000208054611ff290613b3c565b90501461201957600660008281526020019081526020016000206000612018919061311e565b5b50565b8173ffffffffffffffffffffffffffffffffffffffff168373ffffffffffffffffffffffffffffffffffffffff160361208a576040517f08c379a0000000000000000000000000000000000000000000000000000000008152600401612081906145f4565b60405180910390fd5b80600560008573ffffffffffffffffffffffffffffffffffffffff1673ffffffffffffffffffffffffffffffffffffffff16815260200190815260200160002060008473ffffffffffffffffffffffffffffffffffffffff1673ffffffffffffffffffffffffffffffffffffffff16815260200190815260200160002060006101000a81548160ff0219169083151502179055508173ffffffffffffffffffffffffffffffffffffffff168373ffffffffffffffffffffffffffffffffffffffff167f17307eab39ab6107e8899845ad3d59bd9653f200f220920489ca2b5937696c318360405161217b91906132b5565b60405180910390a3505050565b612193848484611ae5565b61219f8484848461278f565b6121de576040517f08c379a00000000000000000000000000000000000000000000000000000000081526004016121d590614686565b60405180910390fd5b50505050565b6121fe828260405180602001604052806000815250612916565b5050565b61220b826124e6565b61224a576040517f08c379a000000000000000000000000000000000000000000000000000000000815260040161224190614718565b60405180910390fd5b8060066000848152602001908152602001600020908051906020019061227192919061315e565b507ff8e1a15aba9398e019f0b49df1a4fde98ee17ae345cb5f6b5e2c27f5033e8ce7826040516122a191906134c5565b60405180910390a15050565b600081116122f0576040517f08c379a00000000000000000000000000000000000000000000000000000000081526004016122e79061426a565b60405180910390fd5b60405180608001604052808381526020018281526020013373ffffffffffffffffffffffffffffffffffffffff16815260200160011515815250600c6000848152602001908152602001600020600082015181600001556020820151816001015560408201518160020160006101000a81548173ffffffffffffffffffffffffffffffffffffffff021916908373ffffffffffffffffffffffffffffffffffffffff16021790555060608201518160020160146101000a81548160ff0219169083151502179055509050507f470031062672bc0246e132c723a729c4676710ec663a29e86c88678032daddea82823360016040516123f19493929190614738565b60405180910390a15050565b606060405180602001604052806000815250905090565b606061241f8261192e565b60006124296123fd565b905060008151116124495760405180602001604052806000815250612474565b8061245384612971565b6040516020016124649291906142f6565b6040516020818303038152906040525b915050919050565b60007f01ffc9a7000000000000000000000000000000000000000000000000000000007bffffffffffffffffffffffffffffffffffffffffffffffffffffffff1916827bffffffffffffffffffffffffffffffffffffffffffffffffffffffff1916149050919050565b60008073ffffffffffffffffffffffffffffffffffffffff1661250883611e48565b73ffffffffffffffffffffffffffffffffffffffff1614159050919050565b61253384848484612a3f565b600073ffffffffffffffffffffffffffffffffffffffff168473ffffffffffffffffffffffffffffffffffffffff16036125755761257082612a45565b6125b4565b8273ffffffffffffffffffffffffffffffffffffffff168473ffffffffffffffffffffffffffffffffffffffff16146125b3576125b28483612a8e565b5b5b600073ffffffffffffffffffffffffffffffffffffffff168373ffffffffffffffffffffffffffffffffffffffff16036125f6576125f182612bfb565b612635565b8373ffffffffffffffffffffffffffffffffffffffff168373ffffffffffffffffffffffffffffffffffffffff1614612634576126338383612ccc565b5b5b50505050565b50505050565b600061264c82610f5b565b905061265c816000846001612527565b61266582610f5b565b90506004600083815260200190815260200160002060006101000a81549073ffffffffffffffffffffffffffffffffffffffff02191690556001600360008373ffffffffffffffffffffffffffffffffffffffff1673ffffffffffffffffffffffffffffffffffffffff168152602001908152602001600020600082825403925050819055506002600083815260200190815260200160002060006101000a81549073ffffffffffffffffffffffffffffffffffffffff021916905581600073ffffffffffffffffffffffffffffffffffffffff168273ffffffffffffffffffffffffffffffffffffffff167fddf252ad1be2c89b69c2b068fc378daa952ba7f163c4a11628f55a4df523b3ef60405160405180910390a461278b81600084600161263b565b5050565b60006127b08473ffffffffffffffffffffffffffffffffffffffff16612d4b565b15612909578373ffffffffffffffffffffffffffffffffffffffff1663150b7a026127d9611979565b8786866040518563ffffffff1660e01b81526004016127fb94939291906147d2565b6020604051808303816000875af192505050801561283757506040513d601f19601f820116820180604052508101906128349190614833565b60015b6128b9573d8060008114612867576040519150601f19603f3d011682016040523d82523d6000602084013e61286c565b606091505b5060008151036128b1576040517f08c379a00000000000000000000000000000000000000000000000000000000081526004016128a890614686565b60405180910390fd5b805181602001fd5b63150b7a0260e01b7bffffffffffffffffffffffffffffffffffffffffffffffffffffffff1916817bffffffffffffffffffffffffffffffffffffffffffffffffffffffff19161491505061290e565b600190505b949350505050565b6129208383612d6e565b61292d600084848461278f565b61296c576040517f08c379a000000000000000000000000000000000000000000000000000000000815260040161296390614686565b60405180910390fd5b505050565b60606000600161298084612f8b565b01905060008167ffffffffffffffff81111561299f5761299e6136d0565b5b6040519080825280601f01601f1916602001820160405280156129d15781602001600182028036833780820191505090505b509050600082602001820190505b600115612a34578080600190039150507f3031323334353637383961626364656600000000000000000000000000000000600a86061a8153600a8581612a2857612a27614860565b5b049450600085036129df575b819350505050919050565b50505050565b600f805490506010600083815260200190815260200160002081905550600f81908060018154018082558091505060019003906000526020600020016000909190919091505550565b60006001612a9b84611093565b612aa5919061488f565b90506000600e6000848152602001908152602001600020549050818114612b8a576000600d60008673ffffffffffffffffffffffffffffffffffffffff1673ffffffffffffffffffffffffffffffffffffffff168152602001908152602001600020600084815260200190815260200160002054905080600d60008773ffffffffffffffffffffffffffffffffffffffff1673ffffffffffffffffffffffffffffffffffffffff16815260200190815260200160002060008481526020019081526020016000208190555081600e600083815260200190815260200160002081905550505b600e600084815260200190815260200160002060009055600d60008573ffffffffffffffffffffffffffffffffffffffff1673ffffffffffffffffffffffffffffffffffffffff16815260200190815260200160002060008381526020019081526020016000206000905550505050565b60006001600f80549050612c0f919061488f565b90506000601060008481526020019081526020016000205490506000600f8381548110612c3f57612c3e613f65565b5b9060005260206000200154905080600f8381548110612c6157612c60613f65565b5b90600052602060002001819055508160106000838152602001908152602001600020819055506010600085815260200190815260200160002060009055600f805480612cb057612caf6148c3565b5b6001900381819060005260206000200160009055905550505050565b6000612cd783611093565b905081600d60008573ffffffffffffffffffffffffffffffffffffffff1673ffffffffffffffffffffffffffffffffffffffff16815260200190815260200160002060008381526020019081526020016000208190555080600e600084815260200190815260200160002081905550505050565b6000808273ffffffffffffffffffffffffffffffffffffffff163b119050919050565b600073ffffffffffffffffffffffffffffffffffffffff168273ffffffffffffffffffffffffffffffffffffffff1603612ddd576040517f08c379a0000000000000000000000000000000000000000000000000000000008152600401612dd49061493e565b60405180910390fd5b612de6816124e6565b15612e26576040517f08c379a0000000000000000000000000000000000000000000000000000000008152600401612e1d906149aa565b60405180910390fd5b612e34600083836001612527565b612e3d816124e6565b15612e7d576040517f08c379a0000000000000000000000000000000000000000000000000000000008152600401612e74906149aa565b60405180910390fd5b6001600360008473ffffffffffffffffffffffffffffffffffffffff1673ffffffffffffffffffffffffffffffffffffffff16815260200190815260200160002060008282540192505081905550816002600083815260200190815260200160002060006101000a81548173ffffffffffffffffffffffffffffffffffffffff021916908373ffffffffffffffffffffffffffffffffffffffff160217905550808273ffffffffffffffffffffffffffffffffffffffff16600073ffffffffffffffffffffffffffffffffffffffff167fddf252ad1be2c89b69c2b068fc378daa952ba7f163c4a11628f55a4df523b3ef60405160405180910390a4612f8760008383600161263b565b5050565b600080600090507a184f03e93ff9f4daa797ed6e38ed64bf6a1f0100000000000000008310612fe9577a184f03e93ff9f4daa797ed6e38ed64bf6a1f0100000000000000008381612fdf57612fde614860565b5b0492506040810190505b6d04ee2d6d415b85acef81000000008310613026576d04ee2d6d415b85acef8100000000838161301c5761301b614860565b5b0492506020810190505b662386f26fc10000831061305557662386f26fc10000838161304b5761304a614860565b5b0492506010810190505b6305f5e100831061307e576305f5e100838161307457613073614860565b5b0492506008810190505b61271083106130a357612710838161309957613098614860565b5b0492506004810190505b606483106130c657606483816130bc576130bb614860565b5b0492506002810190505b600a83106130d5576001810190505b80915050919050565b60405180608001604052806000815260200160008152602001600073ffffffffffffffffffffffffffffffffffffffff1681526020016000151581525090565b50805461312a90613b3c565b6000825580601f1061313c575061315b565b601f01602090049060005260206000209081019061315a91906131e4565b5b50565b82805461316a90613b3c565b90600052602060002090601f01602090048101928261318c57600085556131d3565b82601f106131a557805160ff19168380011785556131d3565b828001600101855582156131d3579182015b828111156131d25782518255916020019190600101906131b7565b5b5090506131e091906131e4565b5090565b5b808211156131fd5760008160009055506001016131e5565b5090565b6000604051905090565b600080fd5b600080fd5b60007fffffffff0000000000000000000000000000000000000000000000000000000082169050919050565b61324a81613215565b811461325557600080fd5b50565b60008135905061326781613241565b92915050565b6000602082840312156132835761328261320b565b5b600061329184828501613258565b91505092915050565b60008115159050919050565b6132af8161329a565b82525050565b60006020820190506132ca60008301846132a6565b92915050565b600081519050919050565b600082825260208201905092915050565b60005b8381101561330a5780820151818401526020810190506132ef565b83811115613319576000848401525b50505050565b6000601f19601f8301169050919050565b600061333b826132d0565b61334581856132db565b93506133558185602086016132ec565b61335e8161331f565b840191505092915050565b600060208201905081810360008301526133838184613330565b905092915050565b6000819050919050565b61339e8161338b565b81146133a957600080fd5b50565b6000813590506133bb81613395565b92915050565b6000602082840312156133d7576133d661320b565b5b60006133e5848285016133ac565b91505092915050565b600073ffffffffffffffffffffffffffffffffffffffff82169050919050565b6000613419826133ee565b9050919050565b6134298161340e565b82525050565b60006020820190506134446000830184613420565b92915050565b6134538161340e565b811461345e57600080fd5b50565b6000813590506134708161344a565b92915050565b6000806040838503121561348d5761348c61320b565b5b600061349b85828601613461565b92505060206134ac858286016133ac565b9150509250929050565b6134bf8161338b565b82525050565b60006020820190506134da60008301846134b6565b92915050565b600080604083850312156134f7576134f661320b565b5b6000613505858286016133ac565b9250506020613516858286016133ac565b9150509250929050565b6000806000606084860312156135395761353861320b565b5b600061354786828701613461565b935050602061355886828701613461565b9250506040613569868287016133ac565b9150509250925092565b600081519050919050565b600082825260208201905092915050565b6000819050602082019050919050565b6135a88161338b565b82525050565b6135b78161340e565b82525050565b6135c68161329a565b82525050565b6080820160008201516135e2600085018261359f565b5060208201516135f5602085018261359f565b50604082015161360860408501826135ae565b50606082015161361b60608501826135bd565b50505050565b600061362d83836135cc565b60808301905092915050565b6000602082019050919050565b600061365182613573565b61365b818561357e565b93506136668361358f565b8060005b8381101561369757815161367e8882613621565b975061368983613639565b92505060018101905061366a565b5085935050505092915050565b600060208201905081810360008301526136be8184613646565b905092915050565b600080fd5b600080fd5b7f4e487b7100000000000000000000000000000000000000000000000000000000600052604160045260246000fd5b6137088261331f565b810181811067ffffffffffffffff82111715613727576137266136d0565b5b80604052505050565b600061373a613201565b905061374682826136ff565b919050565b600067ffffffffffffffff821115613766576137656136d0565b5b61376f8261331f565b9050602081019050919050565b82818337600083830152505050565b600061379e6137998461374b565b613730565b9050828152602081018484840111156137ba576137b96136cb565b5b6137c584828561377c565b509392505050565b600082601f8301126137e2576137e16136c6565b5b81356137f284826020860161378b565b91505092915050565b6000602082840312156138115761381061320b565b5b600082013567ffffffffffffffff81111561382f5761382e613210565b5b61383b848285016137cd565b91505092915050565b60808201600082015161385a600085018261359f565b50602082015161386d602085018261359f565b50604082015161388060408501826135ae565b50606082015161389360608501826135bd565b50505050565b60006080820190506138ae6000830184613844565b92915050565b6000602082840312156138ca576138c961320b565b5b60006138d884828501613461565b91505092915050565b6138ea8161329a565b81146138f557600080fd5b50565b600081359050613907816138e1565b92915050565b600080604083850312156139245761392361320b565b5b600061393285828601613461565b9250506020613943858286016138f8565b9150509250929050565b600067ffffffffffffffff821115613968576139676136d0565b5b6139718261331f565b9050602081019050919050565b600061399161398c8461394d565b613730565b9050828152602081018484840111156139ad576139ac6136cb565b5b6139b884828561377c565b509392505050565b600082601f8301126139d5576139d46136c6565b5b81356139e584826020860161397e565b91505092915050565b60008060008060808587031215613a0857613a0761320b565b5b6000613a1687828801613461565b9450506020613a2787828801613461565b9350506040613a38878288016133ac565b925050606085013567ffffffffffffffff811115613a5957613a58613210565b5b613a65878288016139c0565b91505092959194509250565b60008060408385031215613a8857613a8761320b565b5b600083013567ffffffffffffffff811115613aa657613aa5613210565b5b613ab2858286016137cd565b9250506020613ac3858286016133ac565b9150509250929050565b60008060408385031215613ae457613ae361320b565b5b6000613af285828601613461565b9250506020613b0385828601613461565b9150509250929050565b7f4e487b7100000000000000000000000000000000000000000000000000000000600052602260045260246000fd5b60006002820490506001821680613b5457607f821691505b602082108103613b6757613b66613b0d565b5b50919050565b7f4552433732313a20617070726f76616c20746f2063757272656e74206f776e6560008201527f7200000000000000000000000000000000000000000000000000000000000000602082015250565b6000613bc96021836132db565b9150613bd482613b6d565b604082019050919050565b60006020820190508181036000830152613bf881613bbc565b9050919050565b7f4552433732313a20617070726f76652063616c6c6572206973206e6f7420746f60008201527f6b656e206f776e6572206f7220617070726f76656420666f7220616c6c000000602082015250565b6000613c5b603d836132db565b9150613c6682613bff565b604082019050919050565b60006020820190508181036000830152613c8a81613c4e565b9050919050565b7f596f7520617265206e6f74206f776e6572206f662074686973206e6674000000600082015250565b6000613cc7601d836132db565b9150613cd282613c91565b602082019050919050565b60006020820190508181036000830152613cf681613cba565b9050919050565b7f4974656d20697320616c7265616479206f6e2073616c65000000000000000000600082015250565b6000613d336017836132db565b9150613d3e82613cfd565b602082019050919050565b60006020820190508181036000830152613d6281613d26565b9050919050565b7f5072696365206d75737420626520657175616c20746f206c697374696e67207060008201527f7269636500000000000000000000000000000000000000000000000000000000602082015250565b6000613dc56024836132db565b9150613dd082613d69565b604082019050919050565b60006020820190508181036000830152613df481613db8565b9050919050565b7f4552433732313a2063616c6c6572206973206e6f7420746f6b656e206f776e6560008201527f72206f7220617070726f76656400000000000000000000000000000000000000602082015250565b6000613e57602d836132db565b9150613e6282613dfb565b604082019050919050565b60006020820190508181036000830152613e8681613e4a565b9050919050565b7f596f7520616c7265616479206f776e2074686973204e46540000000000000000600082015250565b6000613ec36018836132db565b9150613ece82613e8d565b602082019050919050565b60006020820190508181036000830152613ef281613eb6565b9050919050565b7f506c65617365207375626d6974207468652061736b696e672070726963650000600082015250565b6000613f2f601e836132db565b9150613f3a82613ef9565b602082019050919050565b60006020820190508181036000830152613f5e81613f22565b9050919050565b7f4e487b7100000000000000000000000000000000000000000000000000000000600052603260045260246000fd5b7f4e487b7100000000000000000000000000000000000000000000000000000000600052601160045260246000fd5b6000613fce8261338b565b9150613fd98361338b565b9250827fffffffffffffffffffffffffffffffffffffffffffffffffffffffffffffffff0382111561400e5761400d613f94565b5b828201905092915050565b60006140248261338b565b91507fffffffffffffffffffffffffffffffffffffffffffffffffffffffffffffffff820361405657614055613f94565b5b600182019050919050565b600081905092915050565b6000614077826132d0565b6140818185614061565b93506140918185602086016132ec565b80840191505092915050565b60006140a9828461406c565b915081905092915050565b7f496e646578206f7574206f6620626f756e647300000000000000000000000000600082015250565b60006140ea6013836132db565b91506140f5826140b4565b602082019050919050565b60006020820190508181036000830152614119816140dd565b9050919050565b7f4552433732313a20696e76616c696420746f6b656e2049440000000000000000600082015250565b60006141566018836132db565b915061416182614120565b602082019050919050565b6000602082019050818103600083015261418581614149565b9050919050565b7f4552433732313a2061646472657373207a65726f206973206e6f74206120766160008201527f6c6964206f776e65720000000000000000000000000000000000000000000000602082015250565b60006141e86029836132db565b91506141f38261418c565b604082019050919050565b60006020820190508181036000830152614217816141db565b9050919050565b7f5072696365206d757374206265206174206c6561737420312077656900000000600082015250565b6000614254601c836132db565b915061425f8261421e565b602082019050919050565b6000602082019050818103600083015261428381614247565b9050919050565b7f546f6b656e2055524920616c7265616479206578697374730000000000000000600082015250565b60006142c06018836132db565b91506142cb8261428a565b602082019050919050565b600060208201905081810360008301526142ef816142b3565b9050919050565b6000614302828561406c565b915061430e828461406c565b91508190509392505050565b7f4f776e61626c653a206e6577206f776e657220697320746865207a65726f206160008201527f6464726573730000000000000000000000000000000000000000000000000000602082015250565b60006143766026836132db565b91506143818261431a565b604082019050919050565b600060208201905081810360008301526143a581614369565b9050919050565b7f4552433732313a207472616e736665722066726f6d20696e636f72726563742060008201527f6f776e6572000000000000000000000000000000000000000000000000000000602082015250565b60006144086025836132db565b9150614413826143ac565b604082019050919050565b60006020820190508181036000830152614437816143fb565b9050919050565b7f4552433732313a207472616e7366657220746f20746865207a65726f2061646460008201527f7265737300000000000000000000000000000000000000000000000000000000602082015250565b600061449a6024836132db565b91506144a58261443e565b604082019050919050565b600060208201905081810360008301526144c98161448d565b9050919050565b7f436f756e7465723a2064656372656d656e74206f766572666c6f770000000000600082015250565b6000614506601b836132db565b9150614511826144d0565b602082019050919050565b60006020820190508181036000830152614535816144f9565b9050919050565b7f4f776e61626c653a2063616c6c6572206973206e6f7420746865206f776e6572600082015250565b60006145726020836132db565b915061457d8261453c565b602082019050919050565b600060208201905081810360008301526145a181614565565b9050919050565b7f4552433732313a20617070726f766520746f2063616c6c657200000000000000600082015250565b60006145de6019836132db565b91506145e9826145a8565b602082019050919050565b6000602082019050818103600083015261460d816145d1565b9050919050565b7f4552433732313a207472616e7366657220746f206e6f6e20455243373231526560008201527f63656976657220696d706c656d656e7465720000000000000000000000000000602082015250565b60006146706032836132db565b915061467b82614614565b604082019050919050565b6000602082019050818103600083015261469f81614663565b9050919050565b7f45524337323155524953746f726167653a2055524920736574206f66206e6f6e60008201527f6578697374656e7420746f6b656e000000000000000000000000000000000000602082015250565b6000614702602e836132db565b915061470d826146a6565b604082019050919050565b60006020820190508181036000830152614731816146f5565b9050919050565b600060808201905061474d60008301876134b6565b61475a60208301866134b6565b6147676040830185613420565b61477460608301846132a6565b95945050505050565b600081519050919050565b600082825260208201905092915050565b60006147a48261477d565b6147ae8185614788565b93506147be8185602086016132ec565b6147c78161331f565b840191505092915050565b60006080820190506147e76000830187613420565b6147f46020830186613420565b61480160408301856134b6565b81810360608301526148138184614799565b905095945050505050565b60008151905061482d81613241565b92915050565b6000602082840312156148495761484861320b565b5b60006148578482850161481e565b91505092915050565b7f4e487b7100000000000000000000000000000000000000000000000000000000600052601260045260246000fd5b600061489a8261338b565b91506148a58361338b565b9250828210156148b8576148b7613f94565b5b828203905092915050565b7f4e487b7100000000000000000000000000000000000000000000000000000000600052603160045260246000fd5b7f4552433732313a206d696e7420746f20746865207a65726f2061646472657373600082015250565b60006149286020836132db565b9150614933826148f2565b602082019050919050565b600060208201905081810360008301526149578161491b565b9050919050565b7f4552433732313a20746f6b656e20616c7265616479206d696e74656400000000600082015250565b6000614994601c836132db565b915061499f8261495e565b602082019050919050565b600060208201905081810360008301526149c381614987565b905091905056fea26469706673582212204d9589882c97f217e6e8b863d96240a2a22974de7a486b0e9f605ddd50a5882d64736f6c634300080d0033",
  "immutableReferences": {},
  "source": "// SPDX-License-Identifier: MIT\r\npragma solidity >=0.4.22 <0.9.0;\r\n\r\nimport \"@openzeppelin/contracts/token/ERC721/extensions/ERC721URIStorage.sol\";\r\nimport \"@openzeppelin/contracts/utils/Counters.sol\";\r\nimport \"@openzeppelin/contracts/access/Ownable.sol\";\r\n\r\ncontract NftMarket is ERC721URIStorage,Ownable {\r\n  using Counters for Counters.Counter;\r\n\r\n  struct NftItem {\r\n    uint tokenId;\r\n    uint price;\r\n    address creator;\r\n    bool isListed;\r\n  }\r\n\r\n  uint public listingPrice = 0.025 ether;\r\n\r\n  Counters.Counter private _listedItems;\r\n  Counters.Counter private _tokenIds;\r\n\r\n\r\n  mapping(string => bool) private _usedTokenURIs;\r\n  mapping(uint => NftItem) private _idToNftItem;\r\n\r\n  mapping(address => mapping(uint => uint)) private _ownedTokens;\r\n\r\n  mapping(uint => uint) private _idToOwnedIndex;\r\n\r\n  uint256[] private _allNfts;\r\n  mapping(uint => uint) private _idToNftIndex;\r\n\r\n  event NftItemCreated (\r\n    uint tokenId,\r\n    uint price,\r\n    address creator,\r\n    bool isListed\r\n  );\r\n\r\n  constructor() ERC721(\"CreaturesNFT\", \"CNFT\") {}\r\n\r\n    function setListingPrice(uint newPrice) external onlyOwner {\r\n    require(newPrice > 0, \"Price must be at least 1 wei\");\r\n    listingPrice = newPrice;\r\n  }\r\n\r\n\r\n  function getNftItem(uint tokenId) public view returns (NftItem memory) {\r\n    return _idToNftItem[tokenId];\r\n  }\r\n\r\n  function listedItemsCount() public view returns (uint) {\r\n    return _listedItems.current();\r\n  }\r\n\r\n  function tokenURIExists(string memory tokenURI) public view returns (bool) {\r\n    return _usedTokenURIs[tokenURI] == true;\r\n  }\r\n\r\n  function totalSupply() public view returns (uint) {\r\n    return _allNfts.length;\r\n  }\r\n\r\n  function tokenByIndex(uint index) public view returns (uint) {\r\n    require(index < totalSupply(), \"Index out of bounds\");\r\n    return _allNfts[index];\r\n  }\r\n\r\n  function tokenOfOwnedByIndex(address owner , uint index) public view returns (uint) {\r\n    require(index < ERC721.balanceOf(owner), \"Index out of bounds\");\r\n    return _ownedTokens[owner][index];\r\n  }\r\n\r\n  function getAllNftsOnSale() public view returns(NftItem[] memory){\r\n    uint allItemsCount = totalSupply();\r\n    uint currentIndex = 0;\r\n    NftItem[] memory items = new NftItem[](_listedItems.current());\r\n\r\n    for(uint i=0;i<allItemsCount;i++){\r\n      uint tokenId =  tokenByIndex(i);\r\n      NftItem storage item = _idToNftItem[tokenId];\r\n      if(item.isListed==true)\r\n      {\r\n        items[currentIndex] = item;\r\n        currentIndex+=1;\r\n      }\r\n    }\r\n    return items;\r\n  }\r\n\r\n  function getOwnedNfts() public view returns (NftItem[] memory){\r\n    uint ownedItemsCount = ERC721.balanceOf(msg.sender);\r\n    NftItem[] memory items = new NftItem[](ownedItemsCount);\r\n    for(uint i=0;i<ownedItemsCount;i++){\r\n      uint tokenId = tokenOfOwnedByIndex(msg.sender, i);\r\n      NftItem storage item = _idToNftItem[tokenId];\r\n      items[i] = item;\r\n    }\r\n    return items;\r\n  }\r\n\r\n    function burnToken(uint tokenId) public {\r\n    _burn(tokenId);\r\n  }\r\n\r\n  function mintToken(string memory tokenURI, uint price) public payable returns (uint) {\r\n    require(!tokenURIExists(tokenURI), \"Token URI already exists\");\r\n    require(msg.value == listingPrice, \"Price must be equal to listing price\");\r\n\r\n    _tokenIds.increment();\r\n    _listedItems.increment();\r\n\r\n    uint newTokenId = _tokenIds.current();\r\n\r\n    _safeMint(msg.sender, newTokenId);\r\n    _setTokenURI(newTokenId, tokenURI);\r\n    _createNftItem(newTokenId, price);\r\n    _usedTokenURIs[tokenURI] = true;\r\n\r\n    return newTokenId;\r\n  }\r\n\r\n  function buyNft(\r\n    uint tokenId\r\n  ) public payable {\r\n    uint price = _idToNftItem[tokenId].price;\r\n    address owner = ERC721.ownerOf(tokenId);\r\n\r\n    require(msg.sender != owner, \"You already own this NFT\");\r\n    require(msg.value == price, \"Please submit the asking price\");\r\n\r\n    _idToNftItem[tokenId].isListed = false;\r\n    _listedItems.decrement();\r\n\r\n    _transfer(owner, msg.sender, tokenId);\r\n    payable(owner).transfer(msg.value);\r\n  }\r\n\r\n    function placeNftOnSale(uint tokenId, uint newPrice) public payable {\r\n    require(ERC721.ownerOf(tokenId) == msg.sender, \"You are not owner of this nft\");\r\n    require(_idToNftItem[tokenId].isListed == false, \"Item is already on sale\");\r\n    require(msg.value == listingPrice, \"Price must be equal to listing price\");\r\n\r\n    _idToNftItem[tokenId].isListed = true;\r\n    _idToNftItem[tokenId].price = newPrice;\r\n    _listedItems.increment();\r\n  }\r\n\r\n\r\n  function _createNftItem(\r\n    uint tokenId,\r\n    uint price\r\n  ) private {\r\n    require(price > 0, \"Price must be at least 1 wei\");\r\n\r\n    _idToNftItem[tokenId] = NftItem(\r\n      tokenId,\r\n      price,\r\n      msg.sender,\r\n      true\r\n    );\r\n\r\n    emit NftItemCreated(tokenId, price, msg.sender, true);\r\n  }\r\n\r\n  function _beforeTokenTransfer(\r\n    address from,\r\n    address to,\r\n    uint tokenId,\r\n    uint batch\r\n  ) internal virtual override {\r\n    super._beforeTokenTransfer(from, to, tokenId,batch);\r\n\r\n    if (from == address(0)) {\r\n      _addTokenToAllTokensEnumeration(tokenId);\r\n    }else if(from!=to){\r\n      _removeTokenFromOwnerEnumeration(from,tokenId);\r\n    }\r\n    if(to==address(0)){\r\n      _removeTokenFromAllTokensEnumeration(tokenId);\r\n    }else if(to!=from){\r\n      _addTokenToOnwerEnumeration(to, tokenId);\r\n    }\r\n  }\r\n\r\n  function _addTokenToAllTokensEnumeration(uint tokenId) private {\r\n    _idToNftIndex[tokenId] = _allNfts.length;\r\n    _allNfts.push(tokenId);\r\n  }\r\n\r\n    function _addTokenToOnwerEnumeration(address to ,uint tokenId) private {\r\n      uint length = ERC721.balanceOf(to);\r\n      _ownedTokens[to][length] = tokenId;\r\n      _idToOwnedIndex[tokenId] = length;\r\n  }\r\n\r\n  function _removeTokenFromOwnerEnumeration(address from , uint tokenId)private{\r\n    uint lastTokenIndex = ERC721.balanceOf(from)-1;\r\n    uint tokenIndex = _idToOwnedIndex[tokenId];\r\n    if(tokenIndex!= lastTokenIndex){\r\n      uint lastTokenId = _ownedTokens[from][lastTokenIndex];\r\n      _ownedTokens[from][tokenIndex] = lastTokenId;\r\n      _idToOwnedIndex[lastTokenId] = tokenIndex;\r\n    }\r\n\r\n    delete _idToOwnedIndex[tokenId];\r\n    delete _ownedTokens[from][lastTokenIndex];\r\n  }\r\n\r\n    function _removeTokenFromAllTokensEnumeration(uint tokenId) private {\r\n    uint lastTokenIndex = _allNfts.length - 1;\r\n    uint tokenIndex = _idToNftIndex[tokenId];\r\n    uint lastTokenId = _allNfts[lastTokenIndex];\r\n\r\n    _allNfts[tokenIndex] = lastTokenId;\r\n    _idToNftIndex[lastTokenId] = tokenIndex;\r\n\r\n    delete _idToNftIndex[tokenId];\r\n    _allNfts.pop();\r\n  }\r\n\r\n}",
  "sourcePath": "C:\\AgricultureFinalDapp\\contracts\\NftMarket.sol",
  "compiler": {
    "name": "solc",
    "version": "0.8.13+commit.abaa5c0e.Emscripten.clang"
  },
  "schemaVersion": "3.4.14",
  "updatedAt": "2023-07-01T21:45:57.253Z",
  "networkType": "ethereum",
  "devdoc": {
    "kind": "dev",
    "methods": {
      "approve(address,uint256)": {
        "details": "See {IERC721-approve}."
      },
      "balanceOf(address)": {
        "details": "See {IERC721-balanceOf}."
      },
      "getApproved(uint256)": {
        "details": "See {IERC721-getApproved}."
      },
      "isApprovedForAll(address,address)": {
        "details": "See {IERC721-isApprovedForAll}."
      },
      "name()": {
        "details": "See {IERC721Metadata-name}."
      },
      "owner()": {
        "details": "Returns the address of the current owner."
      },
      "ownerOf(uint256)": {
        "details": "See {IERC721-ownerOf}."
      },
      "renounceOwnership()": {
        "details": "Leaves the contract without owner. It will not be possible to call `onlyOwner` functions. Can only be called by the current owner. NOTE: Renouncing ownership will leave the contract without an owner, thereby disabling any functionality that is only available to the owner."
      },
      "safeTransferFrom(address,address,uint256)": {
        "details": "See {IERC721-safeTransferFrom}."
      },
      "safeTransferFrom(address,address,uint256,bytes)": {
        "details": "See {IERC721-safeTransferFrom}."
      },
      "setApprovalForAll(address,bool)": {
        "details": "See {IERC721-setApprovalForAll}."
      },
      "supportsInterface(bytes4)": {
        "details": "See {IERC165-supportsInterface}"
      },
      "symbol()": {
        "details": "See {IERC721Metadata-symbol}."
      },
      "tokenURI(uint256)": {
        "details": "See {IERC721Metadata-tokenURI}."
      },
      "transferFrom(address,address,uint256)": {
        "details": "See {IERC721-transferFrom}."
      },
      "transferOwnership(address)": {
        "details": "Transfers ownership of the contract to a new account (`newOwner`). Can only be called by the current owner."
      }
    },
    "version": 1
  },
  "userdoc": {
    "kind": "user",
    "methods": {},
    "version": 1
  }
}